{
	"contracts/theBlockchainMessenger.sol": {
		"theBlockchainMessebger": {
			"abi": [
				{
					"inputs": [],
					"stateMutability": "nonpayable",
					"type": "constructor"
				},
				{
					"inputs": [],
					"name": "changeCounter",
					"outputs": [
						{
							"internalType": "uint256",
							"name": "",
							"type": "uint256"
						}
					],
					"stateMutability": "view",
					"type": "function"
				},
				{
					"inputs": [],
					"name": "owner",
					"outputs": [
						{
							"internalType": "address",
							"name": "",
							"type": "address"
						}
					],
					"stateMutability": "view",
					"type": "function"
				},
				{
					"inputs": [],
					"name": "theMessage",
					"outputs": [
						{
							"internalType": "string",
							"name": "",
							"type": "string"
						}
					],
					"stateMutability": "view",
					"type": "function"
				},
				{
					"inputs": [
						{
							"internalType": "string",
							"name": "_newMessage",
							"type": "string"
						}
					],
					"name": "updatemessage",
					"outputs": [],
					"stateMutability": "nonpayable",
					"type": "function"
				}
			],
			"devdoc": {
				"kind": "dev",
				"methods": {},
				"version": 1
			},
			"evm": {
				"assembly": "    /* \"contracts/theBlockchainMessenger.sol\":57:413  contract theBlockchainMessebger{... */\n  mstore(0x40, 0x80)\n    /* \"contracts/theBlockchainMessenger.sol\":186:234  constructor(){... */\n  callvalue\n  dup1\n  iszero\n  tag_1\n  jumpi\n  revert(0x00, 0x00)\ntag_1:\n  pop\n    /* \"contracts/theBlockchainMessenger.sol\":217:227  msg.sender */\n  caller\n    /* \"contracts/theBlockchainMessenger.sol\":209:214  owner */\n  0x00\n  0x00\n    /* \"contracts/theBlockchainMessenger.sol\":209:227  owner = msg.sender */\n  0x0100\n  exp\n  dup2\n  sload\n  dup2\n  0xffffffffffffffffffffffffffffffffffffffff\n  mul\n  not\n  and\n  swap1\n  dup4\n  0xffffffffffffffffffffffffffffffffffffffff\n  and\n  mul\n  or\n  swap1\n  sstore\n  pop\n    /* \"contracts/theBlockchainMessenger.sol\":57:413  contract theBlockchainMessebger{... */\n  dataSize(sub_0)\n  dup1\n  dataOffset(sub_0)\n  0x00\n  codecopy\n  0x00\n  return\nstop\n\nsub_0: assembly {\n        /* \"contracts/theBlockchainMessenger.sol\":57:413  contract theBlockchainMessebger{... */\n      mstore(0x40, 0x80)\n      callvalue\n      dup1\n      iszero\n      tag_1\n      jumpi\n      revert(0x00, 0x00)\n    tag_1:\n      pop\n      jumpi(tag_2, lt(calldatasize, 0x04))\n      shr(0xe0, calldataload(0x00))\n      dup1\n      0x67e8805f\n      eq\n      tag_3\n      jumpi\n      dup1\n      0x8da5cb5b\n      eq\n      tag_4\n      jumpi\n      dup1\n      0xaaf4389a\n      eq\n      tag_5\n      jumpi\n      dup1\n      0xfeb07fc4\n      eq\n      tag_6\n      jumpi\n    tag_2:\n      revert(0x00, 0x00)\n        /* \"contracts/theBlockchainMessenger.sol\":120:144  string public theMessage */\n    tag_3:\n      tag_7\n      tag_8\n      jump\t// in\n    tag_7:\n      mload(0x40)\n      tag_9\n      swap2\n      swap1\n      tag_10\n      jump\t// in\n    tag_9:\n      mload(0x40)\n      dup1\n      swap2\n      sub\n      swap1\n      return\n        /* \"contracts/theBlockchainMessenger.sol\":94:114  address public owner */\n    tag_4:\n      tag_11\n      tag_12\n      jump\t// in\n    tag_11:\n      mload(0x40)\n      tag_13\n      swap2\n      swap1\n      tag_14\n      jump\t// in\n    tag_13:\n      mload(0x40)\n      dup1\n      swap2\n      sub\n      swap1\n      return\n        /* \"contracts/theBlockchainMessenger.sol\":150:175  uint public changeCounter */\n    tag_5:\n      tag_15\n      tag_16\n      jump\t// in\n    tag_15:\n      mload(0x40)\n      tag_17\n      swap2\n      swap1\n      tag_18\n      jump\t// in\n    tag_17:\n      mload(0x40)\n      dup1\n      swap2\n      sub\n      swap1\n      return\n        /* \"contracts/theBlockchainMessenger.sol\":239:411  function updatemessage(string memory _newMessage)public{... */\n    tag_6:\n      tag_19\n      0x04\n      dup1\n      calldatasize\n      sub\n      dup2\n      add\n      swap1\n      tag_20\n      swap2\n      swap1\n      tag_21\n      jump\t// in\n    tag_20:\n      tag_22\n      jump\t// in\n    tag_19:\n      stop\n        /* \"contracts/theBlockchainMessenger.sol\":120:144  string public theMessage */\n    tag_8:\n      0x01\n      dup1\n      sload\n      tag_23\n      swap1\n      tag_24\n      jump\t// in\n    tag_23:\n      dup1\n      0x1f\n      add\n      0x20\n      dup1\n      swap2\n      div\n      mul\n      0x20\n      add\n      mload(0x40)\n      swap1\n      dup2\n      add\n      0x40\n      mstore\n      dup1\n      swap3\n      swap2\n      swap1\n      dup2\n      dup2\n      mstore\n      0x20\n      add\n      dup3\n      dup1\n      sload\n      tag_25\n      swap1\n      tag_24\n      jump\t// in\n    tag_25:\n      dup1\n      iszero\n      tag_26\n      jumpi\n      dup1\n      0x1f\n      lt\n      tag_27\n      jumpi\n      0x0100\n      dup1\n      dup4\n      sload\n      div\n      mul\n      dup4\n      mstore\n      swap2\n      0x20\n      add\n      swap2\n      jump(tag_26)\n    tag_27:\n      dup3\n      add\n      swap2\n      swap1\n      0x00\n      mstore\n      keccak256(0x00, 0x20)\n      swap1\n    tag_28:\n      dup2\n      sload\n      dup2\n      mstore\n      swap1\n      0x01\n      add\n      swap1\n      0x20\n      add\n      dup1\n      dup4\n      gt\n      tag_28\n      jumpi\n      dup3\n      swap1\n      sub\n      0x1f\n      and\n      dup3\n      add\n      swap2\n    tag_26:\n      pop\n      pop\n      pop\n      pop\n      pop\n      dup2\n      jump\t// out\n        /* \"contracts/theBlockchainMessenger.sol\":94:114  address public owner */\n    tag_12:\n      0x00\n      0x00\n      swap1\n      sload\n      swap1\n      0x0100\n      exp\n      swap1\n      div\n      0xffffffffffffffffffffffffffffffffffffffff\n      and\n      dup2\n      jump\t// out\n        /* \"contracts/theBlockchainMessenger.sol\":150:175  uint public changeCounter */\n    tag_16:\n      sload(0x02)\n      dup2\n      jump\t// out\n        /* \"contracts/theBlockchainMessenger.sol\":239:411  function updatemessage(string memory _newMessage)public{... */\n    tag_22:\n        /* \"contracts/theBlockchainMessenger.sol\":316:326  msg.sender */\n      caller\n        /* \"contracts/theBlockchainMessenger.sol\":307:326  owner == msg.sender */\n      0xffffffffffffffffffffffffffffffffffffffff\n      and\n        /* \"contracts/theBlockchainMessenger.sol\":307:312  owner */\n      0x00\n      0x00\n      swap1\n      sload\n      swap1\n      0x0100\n      exp\n      swap1\n      div\n      0xffffffffffffffffffffffffffffffffffffffff\n      and\n        /* \"contracts/theBlockchainMessenger.sol\":307:326  owner == msg.sender */\n      0xffffffffffffffffffffffffffffffffffffffff\n      and\n      sub\n        /* \"contracts/theBlockchainMessenger.sol\":304:405  if(owner == msg.sender){... */\n      tag_30\n      jumpi\n        /* \"contracts/theBlockchainMessenger.sol\":354:365  _newMessage */\n      dup1\n        /* \"contracts/theBlockchainMessenger.sol\":341:351  theMessage */\n      0x01\n        /* \"contracts/theBlockchainMessenger.sol\":341:365  theMessage = _newMessage */\n      swap1\n      dup2\n      tag_31\n      swap2\n      swap1\n      tag_32\n      jump\t// in\n    tag_31:\n      pop\n        /* \"contracts/theBlockchainMessenger.sol\":379:392  changeCounter */\n      0x02\n      0x00\n        /* \"contracts/theBlockchainMessenger.sol\":379:394  changeCounter++ */\n      dup2\n      sload\n      dup1\n      swap3\n      swap2\n      swap1\n      tag_33\n      swap1\n      tag_34\n      jump\t// in\n    tag_33:\n      swap2\n      swap1\n      pop\n      sstore\n      pop\n        /* \"contracts/theBlockchainMessenger.sol\":304:405  if(owner == msg.sender){... */\n    tag_30:\n        /* \"contracts/theBlockchainMessenger.sol\":239:411  function updatemessage(string memory _newMessage)public{... */\n      pop\n      jump\t// out\n        /* \"#utility.yul\":7:106   */\n    tag_35:\n        /* \"#utility.yul\":59:65   */\n      0x00\n        /* \"#utility.yul\":93:98   */\n      dup2\n        /* \"#utility.yul\":87:99   */\n      mload\n        /* \"#utility.yul\":77:99   */\n      swap1\n      pop\n        /* \"#utility.yul\":7:106   */\n      swap2\n      swap1\n      pop\n      jump\t// out\n        /* \"#utility.yul\":112:281   */\n    tag_36:\n        /* \"#utility.yul\":196:207   */\n      0x00\n        /* \"#utility.yul\":230:236   */\n      dup3\n        /* \"#utility.yul\":225:228   */\n      dup3\n        /* \"#utility.yul\":218:237   */\n      mstore\n        /* \"#utility.yul\":270:274   */\n      0x20\n        /* \"#utility.yul\":265:268   */\n      dup3\n        /* \"#utility.yul\":261:275   */\n      add\n        /* \"#utility.yul\":246:275   */\n      swap1\n      pop\n        /* \"#utility.yul\":112:281   */\n      swap3\n      swap2\n      pop\n      pop\n      jump\t// out\n        /* \"#utility.yul\":287:426   */\n    tag_37:\n        /* \"#utility.yul\":376:382   */\n      dup3\n        /* \"#utility.yul\":371:374   */\n      dup2\n        /* \"#utility.yul\":366:369   */\n      dup4\n        /* \"#utility.yul\":360:383   */\n      mcopy\n        /* \"#utility.yul\":417:418   */\n      0x00\n        /* \"#utility.yul\":408:414   */\n      dup4\n        /* \"#utility.yul\":403:406   */\n      dup4\n        /* \"#utility.yul\":399:415   */\n      add\n        /* \"#utility.yul\":392:419   */\n      mstore\n        /* \"#utility.yul\":287:426   */\n      pop\n      pop\n      pop\n      jump\t// out\n        /* \"#utility.yul\":432:534   */\n    tag_38:\n        /* \"#utility.yul\":473:479   */\n      0x00\n        /* \"#utility.yul\":524:526   */\n      0x1f\n        /* \"#utility.yul\":520:527   */\n      not\n        /* \"#utility.yul\":515:517   */\n      0x1f\n        /* \"#utility.yul\":508:513   */\n      dup4\n        /* \"#utility.yul\":504:518   */\n      add\n        /* \"#utility.yul\":500:528   */\n      and\n        /* \"#utility.yul\":490:528   */\n      swap1\n      pop\n        /* \"#utility.yul\":432:534   */\n      swap2\n      swap1\n      pop\n      jump\t// out\n        /* \"#utility.yul\":540:917   */\n    tag_39:\n        /* \"#utility.yul\":628:631   */\n      0x00\n        /* \"#utility.yul\":656:695   */\n      tag_80\n        /* \"#utility.yul\":689:694   */\n      dup3\n        /* \"#utility.yul\":656:695   */\n      tag_35\n      jump\t// in\n    tag_80:\n        /* \"#utility.yul\":711:782   */\n      tag_81\n        /* \"#utility.yul\":775:781   */\n      dup2\n        /* \"#utility.yul\":770:773   */\n      dup6\n        /* \"#utility.yul\":711:782   */\n      tag_36\n      jump\t// in\n    tag_81:\n        /* \"#utility.yul\":704:782   */\n      swap4\n      pop\n        /* \"#utility.yul\":791:856   */\n      tag_82\n        /* \"#utility.yul\":849:855   */\n      dup2\n        /* \"#utility.yul\":844:847   */\n      dup6\n        /* \"#utility.yul\":837:841   */\n      0x20\n        /* \"#utility.yul\":830:835   */\n      dup7\n        /* \"#utility.yul\":826:842   */\n      add\n        /* \"#utility.yul\":791:856   */\n      tag_37\n      jump\t// in\n    tag_82:\n        /* \"#utility.yul\":881:910   */\n      tag_83\n        /* \"#utility.yul\":903:909   */\n      dup2\n        /* \"#utility.yul\":881:910   */\n      tag_38\n      jump\t// in\n    tag_83:\n        /* \"#utility.yul\":876:879   */\n      dup5\n        /* \"#utility.yul\":872:911   */\n      add\n        /* \"#utility.yul\":865:911   */\n      swap2\n      pop\n        /* \"#utility.yul\":632:917   */\n      pop\n        /* \"#utility.yul\":540:917   */\n      swap3\n      swap2\n      pop\n      pop\n      jump\t// out\n        /* \"#utility.yul\":923:1236   */\n    tag_10:\n        /* \"#utility.yul\":1036:1040   */\n      0x00\n        /* \"#utility.yul\":1074:1076   */\n      0x20\n        /* \"#utility.yul\":1063:1072   */\n      dup3\n        /* \"#utility.yul\":1059:1077   */\n      add\n        /* \"#utility.yul\":1051:1077   */\n      swap1\n      pop\n        /* \"#utility.yul\":1123:1132   */\n      dup2\n        /* \"#utility.yul\":1117:1121   */\n      dup2\n        /* \"#utility.yul\":1113:1133   */\n      sub\n        /* \"#utility.yul\":1109:1110   */\n      0x00\n        /* \"#utility.yul\":1098:1107   */\n      dup4\n        /* \"#utility.yul\":1094:1111   */\n      add\n        /* \"#utility.yul\":1087:1134   */\n      mstore\n        /* \"#utility.yul\":1151:1229   */\n      tag_85\n        /* \"#utility.yul\":1224:1228   */\n      dup2\n        /* \"#utility.yul\":1215:1221   */\n      dup5\n        /* \"#utility.yul\":1151:1229   */\n      tag_39\n      jump\t// in\n    tag_85:\n        /* \"#utility.yul\":1143:1229   */\n      swap1\n      pop\n        /* \"#utility.yul\":923:1236   */\n      swap3\n      swap2\n      pop\n      pop\n      jump\t// out\n        /* \"#utility.yul\":1242:1368   */\n    tag_40:\n        /* \"#utility.yul\":1279:1286   */\n      0x00\n        /* \"#utility.yul\":1319:1361   */\n      0xffffffffffffffffffffffffffffffffffffffff\n        /* \"#utility.yul\":1312:1317   */\n      dup3\n        /* \"#utility.yul\":1308:1362   */\n      and\n        /* \"#utility.yul\":1297:1362   */\n      swap1\n      pop\n        /* \"#utility.yul\":1242:1368   */\n      swap2\n      swap1\n      pop\n      jump\t// out\n        /* \"#utility.yul\":1374:1470   */\n    tag_41:\n        /* \"#utility.yul\":1411:1418   */\n      0x00\n        /* \"#utility.yul\":1440:1464   */\n      tag_88\n        /* \"#utility.yul\":1458:1463   */\n      dup3\n        /* \"#utility.yul\":1440:1464   */\n      tag_40\n      jump\t// in\n    tag_88:\n        /* \"#utility.yul\":1429:1464   */\n      swap1\n      pop\n        /* \"#utility.yul\":1374:1470   */\n      swap2\n      swap1\n      pop\n      jump\t// out\n        /* \"#utility.yul\":1476:1594   */\n    tag_42:\n        /* \"#utility.yul\":1563:1587   */\n      tag_90\n        /* \"#utility.yul\":1581:1586   */\n      dup2\n        /* \"#utility.yul\":1563:1587   */\n      tag_41\n      jump\t// in\n    tag_90:\n        /* \"#utility.yul\":1558:1561   */\n      dup3\n        /* \"#utility.yul\":1551:1588   */\n      mstore\n        /* \"#utility.yul\":1476:1594   */\n      pop\n      pop\n      jump\t// out\n        /* \"#utility.yul\":1600:1822   */\n    tag_14:\n        /* \"#utility.yul\":1693:1697   */\n      0x00\n        /* \"#utility.yul\":1731:1733   */\n      0x20\n        /* \"#utility.yul\":1720:1729   */\n      dup3\n        /* \"#utility.yul\":1716:1734   */\n      add\n        /* \"#utility.yul\":1708:1734   */\n      swap1\n      pop\n        /* \"#utility.yul\":1744:1815   */\n      tag_92\n        /* \"#utility.yul\":1812:1813   */\n      0x00\n        /* \"#utility.yul\":1801:1810   */\n      dup4\n        /* \"#utility.yul\":1797:1814   */\n      add\n        /* \"#utility.yul\":1788:1794   */\n      dup5\n        /* \"#utility.yul\":1744:1815   */\n      tag_42\n      jump\t// in\n    tag_92:\n        /* \"#utility.yul\":1600:1822   */\n      swap3\n      swap2\n      pop\n      pop\n      jump\t// out\n        /* \"#utility.yul\":1828:1905   */\n    tag_43:\n        /* \"#utility.yul\":1865:1872   */\n      0x00\n        /* \"#utility.yul\":1894:1899   */\n      dup2\n        /* \"#utility.yul\":1883:1899   */\n      swap1\n      pop\n        /* \"#utility.yul\":1828:1905   */\n      swap2\n      swap1\n      pop\n      jump\t// out\n        /* \"#utility.yul\":1911:2029   */\n    tag_44:\n        /* \"#utility.yul\":1998:2022   */\n      tag_95\n        /* \"#utility.yul\":2016:2021   */\n      dup2\n        /* \"#utility.yul\":1998:2022   */\n      tag_43\n      jump\t// in\n    tag_95:\n        /* \"#utility.yul\":1993:1996   */\n      dup3\n        /* \"#utility.yul\":1986:2023   */\n      mstore\n        /* \"#utility.yul\":1911:2029   */\n      pop\n      pop\n      jump\t// out\n        /* \"#utility.yul\":2035:2257   */\n    tag_18:\n        /* \"#utility.yul\":2128:2132   */\n      0x00\n        /* \"#utility.yul\":2166:2168   */\n      0x20\n        /* \"#utility.yul\":2155:2164   */\n      dup3\n        /* \"#utility.yul\":2151:2169   */\n      add\n        /* \"#utility.yul\":2143:2169   */\n      swap1\n      pop\n        /* \"#utility.yul\":2179:2250   */\n      tag_97\n        /* \"#utility.yul\":2247:2248   */\n      0x00\n        /* \"#utility.yul\":2236:2245   */\n      dup4\n        /* \"#utility.yul\":2232:2249   */\n      add\n        /* \"#utility.yul\":2223:2229   */\n      dup5\n        /* \"#utility.yul\":2179:2250   */\n      tag_44\n      jump\t// in\n    tag_97:\n        /* \"#utility.yul\":2035:2257   */\n      swap3\n      swap2\n      pop\n      pop\n      jump\t// out\n        /* \"#utility.yul\":2263:2338   */\n    tag_45:\n        /* \"#utility.yul\":2296:2302   */\n      0x00\n        /* \"#utility.yul\":2329:2331   */\n      0x40\n        /* \"#utility.yul\":2323:2332   */\n      mload\n        /* \"#utility.yul\":2313:2332   */\n      swap1\n      pop\n        /* \"#utility.yul\":2263:2338   */\n      swap1\n      jump\t// out\n        /* \"#utility.yul\":2344:2461   */\n    tag_46:\n        /* \"#utility.yul\":2453:2454   */\n      0x00\n        /* \"#utility.yul\":2450:2451   */\n      0x00\n        /* \"#utility.yul\":2443:2455   */\n      revert\n        /* \"#utility.yul\":2467:2584   */\n    tag_47:\n        /* \"#utility.yul\":2576:2577   */\n      0x00\n        /* \"#utility.yul\":2573:2574   */\n      0x00\n        /* \"#utility.yul\":2566:2578   */\n      revert\n        /* \"#utility.yul\":2590:2707   */\n    tag_48:\n        /* \"#utility.yul\":2699:2700   */\n      0x00\n        /* \"#utility.yul\":2696:2697   */\n      0x00\n        /* \"#utility.yul\":2689:2701   */\n      revert\n        /* \"#utility.yul\":2713:2830   */\n    tag_49:\n        /* \"#utility.yul\":2822:2823   */\n      0x00\n        /* \"#utility.yul\":2819:2820   */\n      0x00\n        /* \"#utility.yul\":2812:2824   */\n      revert\n        /* \"#utility.yul\":2836:3016   */\n    tag_50:\n        /* \"#utility.yul\":2884:2961   */\n      0x4e487b7100000000000000000000000000000000000000000000000000000000\n        /* \"#utility.yul\":2881:2882   */\n      0x00\n        /* \"#utility.yul\":2874:2962   */\n      mstore\n        /* \"#utility.yul\":2981:2985   */\n      0x41\n        /* \"#utility.yul\":2978:2979   */\n      0x04\n        /* \"#utility.yul\":2971:2986   */\n      mstore\n        /* \"#utility.yul\":3005:3009   */\n      0x24\n        /* \"#utility.yul\":3002:3003   */\n      0x00\n        /* \"#utility.yul\":2995:3010   */\n      revert\n        /* \"#utility.yul\":3022:3303   */\n    tag_51:\n        /* \"#utility.yul\":3105:3132   */\n      tag_105\n        /* \"#utility.yul\":3127:3131   */\n      dup3\n        /* \"#utility.yul\":3105:3132   */\n      tag_38\n      jump\t// in\n    tag_105:\n        /* \"#utility.yul\":3097:3103   */\n      dup2\n        /* \"#utility.yul\":3093:3133   */\n      add\n        /* \"#utility.yul\":3235:3241   */\n      dup2\n        /* \"#utility.yul\":3223:3233   */\n      dup2\n        /* \"#utility.yul\":3220:3242   */\n      lt\n        /* \"#utility.yul\":3199:3217   */\n      0xffffffffffffffff\n        /* \"#utility.yul\":3187:3197   */\n      dup3\n        /* \"#utility.yul\":3184:3218   */\n      gt\n        /* \"#utility.yul\":3181:3243   */\n      or\n        /* \"#utility.yul\":3178:3266   */\n      iszero\n      tag_106\n      jumpi\n        /* \"#utility.yul\":3246:3264   */\n      tag_107\n      tag_50\n      jump\t// in\n    tag_107:\n        /* \"#utility.yul\":3178:3266   */\n    tag_106:\n        /* \"#utility.yul\":3286:3296   */\n      dup1\n        /* \"#utility.yul\":3282:3284   */\n      0x40\n        /* \"#utility.yul\":3275:3297   */\n      mstore\n        /* \"#utility.yul\":3065:3303   */\n      pop\n        /* \"#utility.yul\":3022:3303   */\n      pop\n      pop\n      jump\t// out\n        /* \"#utility.yul\":3309:3438   */\n    tag_52:\n        /* \"#utility.yul\":3343:3349   */\n      0x00\n        /* \"#utility.yul\":3370:3390   */\n      tag_109\n      tag_45\n      jump\t// in\n    tag_109:\n        /* \"#utility.yul\":3360:3390   */\n      swap1\n      pop\n        /* \"#utility.yul\":3399:3432   */\n      tag_110\n        /* \"#utility.yul\":3427:3431   */\n      dup3\n        /* \"#utility.yul\":3419:3425   */\n      dup3\n        /* \"#utility.yul\":3399:3432   */\n      tag_51\n      jump\t// in\n    tag_110:\n        /* \"#utility.yul\":3309:3438   */\n      swap2\n      swap1\n      pop\n      jump\t// out\n        /* \"#utility.yul\":3444:3752   */\n    tag_53:\n        /* \"#utility.yul\":3506:3510   */\n      0x00\n        /* \"#utility.yul\":3596:3614   */\n      0xffffffffffffffff\n        /* \"#utility.yul\":3588:3594   */\n      dup3\n        /* \"#utility.yul\":3585:3615   */\n      gt\n        /* \"#utility.yul\":3582:3638   */\n      iszero\n      tag_112\n      jumpi\n        /* \"#utility.yul\":3618:3636   */\n      tag_113\n      tag_50\n      jump\t// in\n    tag_113:\n        /* \"#utility.yul\":3582:3638   */\n    tag_112:\n        /* \"#utility.yul\":3656:3685   */\n      tag_114\n        /* \"#utility.yul\":3678:3684   */\n      dup3\n        /* \"#utility.yul\":3656:3685   */\n      tag_38\n      jump\t// in\n    tag_114:\n        /* \"#utility.yul\":3648:3685   */\n      swap1\n      pop\n        /* \"#utility.yul\":3740:3744   */\n      0x20\n        /* \"#utility.yul\":3734:3738   */\n      dup2\n        /* \"#utility.yul\":3730:3745   */\n      add\n        /* \"#utility.yul\":3722:3745   */\n      swap1\n      pop\n        /* \"#utility.yul\":3444:3752   */\n      swap2\n      swap1\n      pop\n      jump\t// out\n        /* \"#utility.yul\":3758:3906   */\n    tag_54:\n        /* \"#utility.yul\":3856:3862   */\n      dup3\n        /* \"#utility.yul\":3851:3854   */\n      dup2\n        /* \"#utility.yul\":3846:3849   */\n      dup4\n        /* \"#utility.yul\":3833:3863   */\n      calldatacopy\n        /* \"#utility.yul\":3897:3898   */\n      0x00\n        /* \"#utility.yul\":3888:3894   */\n      dup4\n        /* \"#utility.yul\":3883:3886   */\n      dup4\n        /* \"#utility.yul\":3879:3895   */\n      add\n        /* \"#utility.yul\":3872:3899   */\n      mstore\n        /* \"#utility.yul\":3758:3906   */\n      pop\n      pop\n      pop\n      jump\t// out\n        /* \"#utility.yul\":3912:4337   */\n    tag_55:\n        /* \"#utility.yul\":3990:3995   */\n      0x00\n        /* \"#utility.yul\":4015:4081   */\n      tag_117\n        /* \"#utility.yul\":4031:4080   */\n      tag_118\n        /* \"#utility.yul\":4073:4079   */\n      dup5\n        /* \"#utility.yul\":4031:4080   */\n      tag_53\n      jump\t// in\n    tag_118:\n        /* \"#utility.yul\":4015:4081   */\n      tag_52\n      jump\t// in\n    tag_117:\n        /* \"#utility.yul\":4006:4081   */\n      swap1\n      pop\n        /* \"#utility.yul\":4104:4110   */\n      dup3\n        /* \"#utility.yul\":4097:4102   */\n      dup2\n        /* \"#utility.yul\":4090:4111   */\n      mstore\n        /* \"#utility.yul\":4142:4146   */\n      0x20\n        /* \"#utility.yul\":4135:4140   */\n      dup2\n        /* \"#utility.yul\":4131:4147   */\n      add\n        /* \"#utility.yul\":4180:4183   */\n      dup5\n        /* \"#utility.yul\":4171:4177   */\n      dup5\n        /* \"#utility.yul\":4166:4169   */\n      dup5\n        /* \"#utility.yul\":4162:4178   */\n      add\n        /* \"#utility.yul\":4159:4184   */\n      gt\n        /* \"#utility.yul\":4156:4268   */\n      iszero\n      tag_119\n      jumpi\n        /* \"#utility.yul\":4187:4266   */\n      tag_120\n      tag_49\n      jump\t// in\n    tag_120:\n        /* \"#utility.yul\":4156:4268   */\n    tag_119:\n        /* \"#utility.yul\":4277:4331   */\n      tag_121\n        /* \"#utility.yul\":4324:4330   */\n      dup5\n        /* \"#utility.yul\":4319:4322   */\n      dup3\n        /* \"#utility.yul\":4314:4317   */\n      dup6\n        /* \"#utility.yul\":4277:4331   */\n      tag_54\n      jump\t// in\n    tag_121:\n        /* \"#utility.yul\":3996:4337   */\n      pop\n        /* \"#utility.yul\":3912:4337   */\n      swap4\n      swap3\n      pop\n      pop\n      pop\n      jump\t// out\n        /* \"#utility.yul\":4357:4697   */\n    tag_56:\n        /* \"#utility.yul\":4413:4418   */\n      0x00\n        /* \"#utility.yul\":4462:4465   */\n      dup3\n        /* \"#utility.yul\":4455:4459   */\n      0x1f\n        /* \"#utility.yul\":4447:4453   */\n      dup4\n        /* \"#utility.yul\":4443:4460   */\n      add\n        /* \"#utility.yul\":4439:4466   */\n      slt\n        /* \"#utility.yul\":4429:4551   */\n      tag_123\n      jumpi\n        /* \"#utility.yul\":4470:4549   */\n      tag_124\n      tag_48\n      jump\t// in\n    tag_124:\n        /* \"#utility.yul\":4429:4551   */\n    tag_123:\n        /* \"#utility.yul\":4587:4593   */\n      dup2\n        /* \"#utility.yul\":4574:4594   */\n      calldataload\n        /* \"#utility.yul\":4612:4691   */\n      tag_125\n        /* \"#utility.yul\":4687:4690   */\n      dup5\n        /* \"#utility.yul\":4679:4685   */\n      dup3\n        /* \"#utility.yul\":4672:4676   */\n      0x20\n        /* \"#utility.yul\":4664:4670   */\n      dup7\n        /* \"#utility.yul\":4660:4677   */\n      add\n        /* \"#utility.yul\":4612:4691   */\n      tag_55\n      jump\t// in\n    tag_125:\n        /* \"#utility.yul\":4603:4691   */\n      swap2\n      pop\n        /* \"#utility.yul\":4419:4697   */\n      pop\n        /* \"#utility.yul\":4357:4697   */\n      swap3\n      swap2\n      pop\n      pop\n      jump\t// out\n        /* \"#utility.yul\":4703:5212   */\n    tag_21:\n        /* \"#utility.yul\":4772:4778   */\n      0x00\n        /* \"#utility.yul\":4821:4823   */\n      0x20\n        /* \"#utility.yul\":4809:4818   */\n      dup3\n        /* \"#utility.yul\":4800:4807   */\n      dup5\n        /* \"#utility.yul\":4796:4819   */\n      sub\n        /* \"#utility.yul\":4792:4824   */\n      slt\n        /* \"#utility.yul\":4789:4908   */\n      iszero\n      tag_127\n      jumpi\n        /* \"#utility.yul\":4827:4906   */\n      tag_128\n      tag_46\n      jump\t// in\n    tag_128:\n        /* \"#utility.yul\":4789:4908   */\n    tag_127:\n        /* \"#utility.yul\":4975:4976   */\n      0x00\n        /* \"#utility.yul\":4964:4973   */\n      dup3\n        /* \"#utility.yul\":4960:4977   */\n      add\n        /* \"#utility.yul\":4947:4978   */\n      calldataload\n        /* \"#utility.yul\":5005:5023   */\n      0xffffffffffffffff\n        /* \"#utility.yul\":4997:5003   */\n      dup2\n        /* \"#utility.yul\":4994:5024   */\n      gt\n        /* \"#utility.yul\":4991:5108   */\n      iszero\n      tag_129\n      jumpi\n        /* \"#utility.yul\":5027:5106   */\n      tag_130\n      tag_47\n      jump\t// in\n    tag_130:\n        /* \"#utility.yul\":4991:5108   */\n    tag_129:\n        /* \"#utility.yul\":5132:5195   */\n      tag_131\n        /* \"#utility.yul\":5187:5194   */\n      dup5\n        /* \"#utility.yul\":5178:5184   */\n      dup3\n        /* \"#utility.yul\":5167:5176   */\n      dup6\n        /* \"#utility.yul\":5163:5185   */\n      add\n        /* \"#utility.yul\":5132:5195   */\n      tag_56\n      jump\t// in\n    tag_131:\n        /* \"#utility.yul\":5122:5195   */\n      swap2\n      pop\n        /* \"#utility.yul\":4918:5205   */\n      pop\n        /* \"#utility.yul\":4703:5212   */\n      swap3\n      swap2\n      pop\n      pop\n      jump\t// out\n        /* \"#utility.yul\":5218:5398   */\n    tag_57:\n        /* \"#utility.yul\":5266:5343   */\n      0x4e487b7100000000000000000000000000000000000000000000000000000000\n        /* \"#utility.yul\":5263:5264   */\n      0x00\n        /* \"#utility.yul\":5256:5344   */\n      mstore\n        /* \"#utility.yul\":5363:5367   */\n      0x22\n        /* \"#utility.yul\":5360:5361   */\n      0x04\n        /* \"#utility.yul\":5353:5368   */\n      mstore\n        /* \"#utility.yul\":5387:5391   */\n      0x24\n        /* \"#utility.yul\":5384:5385   */\n      0x00\n        /* \"#utility.yul\":5377:5392   */\n      revert\n        /* \"#utility.yul\":5404:5724   */\n    tag_24:\n        /* \"#utility.yul\":5448:5454   */\n      0x00\n        /* \"#utility.yul\":5485:5486   */\n      0x02\n        /* \"#utility.yul\":5479:5483   */\n      dup3\n        /* \"#utility.yul\":5475:5487   */\n      div\n        /* \"#utility.yul\":5465:5487   */\n      swap1\n      pop\n        /* \"#utility.yul\":5532:5533   */\n      0x01\n        /* \"#utility.yul\":5526:5530   */\n      dup3\n        /* \"#utility.yul\":5522:5534   */\n      and\n        /* \"#utility.yul\":5553:5571   */\n      dup1\n        /* \"#utility.yul\":5543:5624   */\n      tag_134\n      jumpi\n        /* \"#utility.yul\":5609:5613   */\n      0x7f\n        /* \"#utility.yul\":5601:5607   */\n      dup3\n        /* \"#utility.yul\":5597:5614   */\n      and\n        /* \"#utility.yul\":5587:5614   */\n      swap2\n      pop\n        /* \"#utility.yul\":5543:5624   */\n    tag_134:\n        /* \"#utility.yul\":5671:5673   */\n      0x20\n        /* \"#utility.yul\":5663:5669   */\n      dup3\n        /* \"#utility.yul\":5660:5674   */\n      lt\n        /* \"#utility.yul\":5640:5658   */\n      dup2\n        /* \"#utility.yul\":5637:5675   */\n      sub\n        /* \"#utility.yul\":5634:5718   */\n      tag_135\n      jumpi\n        /* \"#utility.yul\":5690:5708   */\n      tag_136\n      tag_57\n      jump\t// in\n    tag_136:\n        /* \"#utility.yul\":5634:5718   */\n    tag_135:\n        /* \"#utility.yul\":5455:5724   */\n      pop\n        /* \"#utility.yul\":5404:5724   */\n      swap2\n      swap1\n      pop\n      jump\t// out\n        /* \"#utility.yul\":5730:5871   */\n    tag_58:\n        /* \"#utility.yul\":5779:5783   */\n      0x00\n        /* \"#utility.yul\":5802:5805   */\n      dup2\n        /* \"#utility.yul\":5794:5805   */\n      swap1\n      pop\n        /* \"#utility.yul\":5825:5828   */\n      dup2\n        /* \"#utility.yul\":5822:5823   */\n      0x00\n        /* \"#utility.yul\":5815:5829   */\n      mstore\n        /* \"#utility.yul\":5859:5863   */\n      0x20\n        /* \"#utility.yul\":5856:5857   */\n      0x00\n        /* \"#utility.yul\":5846:5864   */\n      keccak256\n        /* \"#utility.yul\":5838:5864   */\n      swap1\n      pop\n        /* \"#utility.yul\":5730:5871   */\n      swap2\n      swap1\n      pop\n      jump\t// out\n        /* \"#utility.yul\":5877:5970   */\n    tag_59:\n        /* \"#utility.yul\":5914:5920   */\n      0x00\n        /* \"#utility.yul\":5961:5963   */\n      0x20\n        /* \"#utility.yul\":5956:5958   */\n      0x1f\n        /* \"#utility.yul\":5949:5954   */\n      dup4\n        /* \"#utility.yul\":5945:5959   */\n      add\n        /* \"#utility.yul\":5941:5964   */\n      div\n        /* \"#utility.yul\":5931:5964   */\n      swap1\n      pop\n        /* \"#utility.yul\":5877:5970   */\n      swap2\n      swap1\n      pop\n      jump\t// out\n        /* \"#utility.yul\":5976:6083   */\n    tag_60:\n        /* \"#utility.yul\":6020:6028   */\n      0x00\n        /* \"#utility.yul\":6070:6075   */\n      dup3\n        /* \"#utility.yul\":6064:6068   */\n      dup3\n        /* \"#utility.yul\":6060:6076   */\n      shl\n        /* \"#utility.yul\":6039:6076   */\n      swap1\n      pop\n        /* \"#utility.yul\":5976:6083   */\n      swap3\n      swap2\n      pop\n      pop\n      jump\t// out\n        /* \"#utility.yul\":6089:6482   */\n    tag_61:\n        /* \"#utility.yul\":6158:6164   */\n      0x00\n        /* \"#utility.yul\":6208:6209   */\n      0x08\n        /* \"#utility.yul\":6196:6206   */\n      dup4\n        /* \"#utility.yul\":6192:6210   */\n      mul\n        /* \"#utility.yul\":6231:6328   */\n      tag_141\n        /* \"#utility.yul\":6261:6327   */\n      0xffffffffffffffffffffffffffffffffffffffffffffffffffffffffffffffff\n        /* \"#utility.yul\":6250:6259   */\n      dup3\n        /* \"#utility.yul\":6231:6328   */\n      tag_60\n      jump\t// in\n    tag_141:\n        /* \"#utility.yul\":6349:6388   */\n      tag_142\n        /* \"#utility.yul\":6379:6387   */\n      dup7\n        /* \"#utility.yul\":6368:6377   */\n      dup4\n        /* \"#utility.yul\":6349:6388   */\n      tag_60\n      jump\t// in\n    tag_142:\n        /* \"#utility.yul\":6337:6388   */\n      swap6\n      pop\n        /* \"#utility.yul\":6421:6425   */\n      dup1\n        /* \"#utility.yul\":6417:6426   */\n      not\n        /* \"#utility.yul\":6410:6415   */\n      dup5\n        /* \"#utility.yul\":6406:6427   */\n      and\n        /* \"#utility.yul\":6397:6427   */\n      swap4\n      pop\n        /* \"#utility.yul\":6470:6474   */\n      dup1\n        /* \"#utility.yul\":6460:6468   */\n      dup7\n        /* \"#utility.yul\":6456:6475   */\n      and\n        /* \"#utility.yul\":6449:6454   */\n      dup5\n        /* \"#utility.yul\":6446:6476   */\n      or\n        /* \"#utility.yul\":6436:6476   */\n      swap3\n      pop\n        /* \"#utility.yul\":6165:6482   */\n      pop\n      pop\n        /* \"#utility.yul\":6089:6482   */\n      swap4\n      swap3\n      pop\n      pop\n      pop\n      jump\t// out\n        /* \"#utility.yul\":6488:6548   */\n    tag_62:\n        /* \"#utility.yul\":6516:6519   */\n      0x00\n        /* \"#utility.yul\":6537:6542   */\n      dup2\n        /* \"#utility.yul\":6530:6542   */\n      swap1\n      pop\n        /* \"#utility.yul\":6488:6548   */\n      swap2\n      swap1\n      pop\n      jump\t// out\n        /* \"#utility.yul\":6554:6696   */\n    tag_63:\n        /* \"#utility.yul\":6604:6613   */\n      0x00\n        /* \"#utility.yul\":6637:6690   */\n      tag_145\n        /* \"#utility.yul\":6655:6689   */\n      tag_146\n        /* \"#utility.yul\":6664:6688   */\n      tag_147\n        /* \"#utility.yul\":6682:6687   */\n      dup5\n        /* \"#utility.yul\":6664:6688   */\n      tag_43\n      jump\t// in\n    tag_147:\n        /* \"#utility.yul\":6655:6689   */\n      tag_62\n      jump\t// in\n    tag_146:\n        /* \"#utility.yul\":6637:6690   */\n      tag_43\n      jump\t// in\n    tag_145:\n        /* \"#utility.yul\":6624:6690   */\n      swap1\n      pop\n        /* \"#utility.yul\":6554:6696   */\n      swap2\n      swap1\n      pop\n      jump\t// out\n        /* \"#utility.yul\":6702:6777   */\n    tag_64:\n        /* \"#utility.yul\":6745:6748   */\n      0x00\n        /* \"#utility.yul\":6766:6771   */\n      dup2\n        /* \"#utility.yul\":6759:6771   */\n      swap1\n      pop\n        /* \"#utility.yul\":6702:6777   */\n      swap2\n      swap1\n      pop\n      jump\t// out\n        /* \"#utility.yul\":6783:7052   */\n    tag_65:\n        /* \"#utility.yul\":6893:6932   */\n      tag_150\n        /* \"#utility.yul\":6924:6931   */\n      dup4\n        /* \"#utility.yul\":6893:6932   */\n      tag_63\n      jump\t// in\n    tag_150:\n        /* \"#utility.yul\":6954:7045   */\n      tag_151\n        /* \"#utility.yul\":7003:7044   */\n      tag_152\n        /* \"#utility.yul\":7027:7043   */\n      dup3\n        /* \"#utility.yul\":7003:7044   */\n      tag_64\n      jump\t// in\n    tag_152:\n        /* \"#utility.yul\":6995:7001   */\n      dup5\n        /* \"#utility.yul\":6988:6992   */\n      dup5\n        /* \"#utility.yul\":6982:6993   */\n      sload\n        /* \"#utility.yul\":6954:7045   */\n      tag_61\n      jump\t// in\n    tag_151:\n        /* \"#utility.yul\":6948:6952   */\n      dup3\n        /* \"#utility.yul\":6941:7046   */\n      sstore\n        /* \"#utility.yul\":6859:7052   */\n      pop\n        /* \"#utility.yul\":6783:7052   */\n      pop\n      pop\n      pop\n      jump\t// out\n        /* \"#utility.yul\":7058:7131   */\n    tag_66:\n        /* \"#utility.yul\":7103:7106   */\n      0x00\n        /* \"#utility.yul\":7124:7125   */\n      0x00\n        /* \"#utility.yul\":7117:7125   */\n      swap1\n      pop\n        /* \"#utility.yul\":7058:7131   */\n      swap1\n      jump\t// out\n        /* \"#utility.yul\":7137:7326   */\n    tag_67:\n        /* \"#utility.yul\":7214:7246   */\n      tag_155\n      tag_66\n      jump\t// in\n    tag_155:\n        /* \"#utility.yul\":7255:7320   */\n      tag_156\n        /* \"#utility.yul\":7313:7319   */\n      dup2\n        /* \"#utility.yul\":7305:7311   */\n      dup5\n        /* \"#utility.yul\":7299:7303   */\n      dup5\n        /* \"#utility.yul\":7255:7320   */\n      tag_65\n      jump\t// in\n    tag_156:\n        /* \"#utility.yul\":7190:7326   */\n      pop\n        /* \"#utility.yul\":7137:7326   */\n      pop\n      pop\n      jump\t// out\n        /* \"#utility.yul\":7332:7546   */\n    tag_68:\n        /* \"#utility.yul\":7417:7418   */\n      0x00\n        /* \"#utility.yul\":7402:7540   */\n    tag_158:\n        /* \"#utility.yul\":7427:7436   */\n      dup3\n        /* \"#utility.yul\":7424:7425   */\n      dup2\n        /* \"#utility.yul\":7421:7437   */\n      lt\n        /* \"#utility.yul\":7402:7540   */\n      iszero\n      tag_160\n      jumpi\n        /* \"#utility.yul\":7479:7530   */\n      tag_161\n        /* \"#utility.yul\":7528:7529   */\n      0x00\n        /* \"#utility.yul\":7524:7525   */\n      dup3\n        /* \"#utility.yul\":7513:7522   */\n      dup5\n        /* \"#utility.yul\":7509:7526   */\n      add\n        /* \"#utility.yul\":7479:7530   */\n      tag_67\n      jump\t// in\n    tag_161:\n        /* \"#utility.yul\":7452:7453   */\n      0x01\n        /* \"#utility.yul\":7449:7450   */\n      dup2\n        /* \"#utility.yul\":7445:7454   */\n      add\n        /* \"#utility.yul\":7440:7454   */\n      swap1\n      pop\n        /* \"#utility.yul\":7402:7540   */\n      jump(tag_158)\n    tag_160:\n        /* \"#utility.yul\":7406:7420   */\n      pop\n        /* \"#utility.yul\":7332:7546   */\n      pop\n      pop\n      jump\t// out\n        /* \"#utility.yul\":7552:8298   */\n    tag_69:\n        /* \"#utility.yul\":7653:7655   */\n      0x1f\n        /* \"#utility.yul\":7648:7651   */\n      dup3\n        /* \"#utility.yul\":7645:7656   */\n      gt\n        /* \"#utility.yul\":7642:8291   */\n      iszero\n      tag_163\n      jumpi\n        /* \"#utility.yul\":7682:7692   */\n      dup3\n        /* \"#utility.yul\":7677:7680   */\n      dup3\n        /* \"#utility.yul\":7674:7693   */\n      gt\n        /* \"#utility.yul\":7671:8281   */\n      iszero\n      tag_164\n      jumpi\n        /* \"#utility.yul\":7728:7766   */\n      tag_165\n        /* \"#utility.yul\":7760:7765   */\n      dup2\n        /* \"#utility.yul\":7728:7766   */\n      tag_58\n      jump\t// in\n    tag_165:\n        /* \"#utility.yul\":7803:7825   */\n      tag_166\n        /* \"#utility.yul\":7821:7824   */\n      dup4\n        /* \"#utility.yul\":7803:7825   */\n      tag_59\n      jump\t// in\n    tag_166:\n        /* \"#utility.yul\":7862:7891   */\n      tag_167\n        /* \"#utility.yul\":7880:7890   */\n      dup6\n        /* \"#utility.yul\":7862:7891   */\n      tag_59\n      jump\t// in\n    tag_167:\n        /* \"#utility.yul\":8052:8054   */\n      0x20\n        /* \"#utility.yul\":8040:8050   */\n      dup7\n        /* \"#utility.yul\":8037:8055   */\n      lt\n        /* \"#utility.yul\":8034:8113   */\n      iszero\n      tag_168\n      jumpi\n        /* \"#utility.yul\":8094:8095   */\n      0x00\n        /* \"#utility.yul\":8078:8095   */\n      swap1\n      pop\n        /* \"#utility.yul\":8034:8113   */\n    tag_168:\n        /* \"#utility.yul\":8163:8175   */\n      dup1\n        /* \"#utility.yul\":8153:8161   */\n      dup4\n        /* \"#utility.yul\":8149:8176   */\n      add\n        /* \"#utility.yul\":8193:8267   */\n      tag_169\n        /* \"#utility.yul\":8253:8265   */\n      dup3\n        /* \"#utility.yul\":8239:8251   */\n      dup5\n        /* \"#utility.yul\":8235:8266   */\n      sub\n        /* \"#utility.yul\":8222:8233   */\n      dup3\n        /* \"#utility.yul\":8193:8267   */\n      tag_68\n      jump\t// in\n    tag_169:\n        /* \"#utility.yul\":7694:8281   */\n      pop\n      pop\n      pop\n      pop\n        /* \"#utility.yul\":7671:8281   */\n    tag_164:\n        /* \"#utility.yul\":7642:8291   */\n    tag_163:\n        /* \"#utility.yul\":7552:8298   */\n      pop\n      pop\n      pop\n      jump\t// out\n        /* \"#utility.yul\":8304:8421   */\n    tag_70:\n        /* \"#utility.yul\":8358:8366   */\n      0x00\n        /* \"#utility.yul\":8408:8413   */\n      dup3\n        /* \"#utility.yul\":8402:8406   */\n      dup3\n        /* \"#utility.yul\":8398:8414   */\n      shr\n        /* \"#utility.yul\":8377:8414   */\n      swap1\n      pop\n        /* \"#utility.yul\":8304:8421   */\n      swap3\n      swap2\n      pop\n      pop\n      jump\t// out\n        /* \"#utility.yul\":8427:8596   */\n    tag_71:\n        /* \"#utility.yul\":8471:8477   */\n      0x00\n        /* \"#utility.yul\":8504:8555   */\n      tag_172\n        /* \"#utility.yul\":8552:8553   */\n      0x00\n        /* \"#utility.yul\":8548:8554   */\n      not\n        /* \"#utility.yul\":8540:8545   */\n      dup5\n        /* \"#utility.yul\":8537:8538   */\n      0x08\n        /* \"#utility.yul\":8533:8546   */\n      mul\n        /* \"#utility.yul\":8504:8555   */\n      tag_70\n      jump\t// in\n    tag_172:\n        /* \"#utility.yul\":8500:8556   */\n      not\n        /* \"#utility.yul\":8585:8589   */\n      dup1\n        /* \"#utility.yul\":8579:8583   */\n      dup4\n        /* \"#utility.yul\":8575:8590   */\n      and\n        /* \"#utility.yul\":8565:8590   */\n      swap2\n      pop\n        /* \"#utility.yul\":8478:8596   */\n      pop\n        /* \"#utility.yul\":8427:8596   */\n      swap3\n      swap2\n      pop\n      pop\n      jump\t// out\n        /* \"#utility.yul\":8601:8896   */\n    tag_72:\n        /* \"#utility.yul\":8677:8681   */\n      0x00\n        /* \"#utility.yul\":8823:8852   */\n      tag_174\n        /* \"#utility.yul\":8848:8851   */\n      dup4\n        /* \"#utility.yul\":8842:8846   */\n      dup4\n        /* \"#utility.yul\":8823:8852   */\n      tag_71\n      jump\t// in\n    tag_174:\n        /* \"#utility.yul\":8815:8852   */\n      swap2\n      pop\n        /* \"#utility.yul\":8885:8888   */\n      dup3\n        /* \"#utility.yul\":8882:8883   */\n      0x02\n        /* \"#utility.yul\":8878:8889   */\n      mul\n        /* \"#utility.yul\":8872:8876   */\n      dup3\n        /* \"#utility.yul\":8869:8890   */\n      or\n        /* \"#utility.yul\":8861:8890   */\n      swap1\n      pop\n        /* \"#utility.yul\":8601:8896   */\n      swap3\n      swap2\n      pop\n      pop\n      jump\t// out\n        /* \"#utility.yul\":8901:10296   */\n    tag_32:\n        /* \"#utility.yul\":9018:9055   */\n      tag_176\n        /* \"#utility.yul\":9051:9054   */\n      dup3\n        /* \"#utility.yul\":9018:9055   */\n      tag_35\n      jump\t// in\n    tag_176:\n        /* \"#utility.yul\":9120:9138   */\n      0xffffffffffffffff\n        /* \"#utility.yul\":9112:9118   */\n      dup2\n        /* \"#utility.yul\":9109:9139   */\n      gt\n        /* \"#utility.yul\":9106:9162   */\n      iszero\n      tag_177\n      jumpi\n        /* \"#utility.yul\":9142:9160   */\n      tag_178\n      tag_50\n      jump\t// in\n    tag_178:\n        /* \"#utility.yul\":9106:9162   */\n    tag_177:\n        /* \"#utility.yul\":9186:9224   */\n      tag_179\n        /* \"#utility.yul\":9218:9222   */\n      dup3\n        /* \"#utility.yul\":9212:9223   */\n      sload\n        /* \"#utility.yul\":9186:9224   */\n      tag_24\n      jump\t// in\n    tag_179:\n        /* \"#utility.yul\":9271:9338   */\n      tag_180\n        /* \"#utility.yul\":9331:9337   */\n      dup3\n        /* \"#utility.yul\":9323:9329   */\n      dup3\n        /* \"#utility.yul\":9317:9321   */\n      dup6\n        /* \"#utility.yul\":9271:9338   */\n      tag_69\n      jump\t// in\n    tag_180:\n        /* \"#utility.yul\":9365:9366   */\n      0x00\n        /* \"#utility.yul\":9389:9393   */\n      0x20\n        /* \"#utility.yul\":9376:9393   */\n      swap1\n      pop\n        /* \"#utility.yul\":9421:9423   */\n      0x1f\n        /* \"#utility.yul\":9413:9419   */\n      dup4\n        /* \"#utility.yul\":9410:9424   */\n      gt\n        /* \"#utility.yul\":9438:9439   */\n      0x01\n        /* \"#utility.yul\":9433:10051   */\n      dup2\n      eq\n      tag_182\n      jumpi\n        /* \"#utility.yul\":10095:10096   */\n      0x00\n        /* \"#utility.yul\":10112:10118   */\n      dup5\n        /* \"#utility.yul\":10109:10186   */\n      iszero\n      tag_183\n      jumpi\n        /* \"#utility.yul\":10161:10170   */\n      dup3\n        /* \"#utility.yul\":10156:10159   */\n      dup8\n        /* \"#utility.yul\":10152:10171   */\n      add\n        /* \"#utility.yul\":10146:10172   */\n      mload\n        /* \"#utility.yul\":10137:10172   */\n      swap1\n      pop\n        /* \"#utility.yul\":10109:10186   */\n    tag_183:\n        /* \"#utility.yul\":10212:10279   */\n      tag_184\n        /* \"#utility.yul\":10272:10278   */\n      dup6\n        /* \"#utility.yul\":10265:10270   */\n      dup3\n        /* \"#utility.yul\":10212:10279   */\n      tag_72\n      jump\t// in\n    tag_184:\n        /* \"#utility.yul\":10206:10210   */\n      dup7\n        /* \"#utility.yul\":10199:10280   */\n      sstore\n        /* \"#utility.yul\":10068:10290   */\n      pop\n        /* \"#utility.yul\":9403:10290   */\n      jump(tag_181)\n        /* \"#utility.yul\":9433:10051   */\n    tag_182:\n        /* \"#utility.yul\":9485:9489   */\n      0x1f\n        /* \"#utility.yul\":9481:9490   */\n      not\n        /* \"#utility.yul\":9473:9479   */\n      dup5\n        /* \"#utility.yul\":9469:9491   */\n      and\n        /* \"#utility.yul\":9519:9556   */\n      tag_185\n        /* \"#utility.yul\":9551:9555   */\n      dup7\n        /* \"#utility.yul\":9519:9556   */\n      tag_58\n      jump\t// in\n    tag_185:\n        /* \"#utility.yul\":9578:9579   */\n      0x00\n        /* \"#utility.yul\":9592:9800   */\n    tag_186:\n        /* \"#utility.yul\":9606:9613   */\n      dup3\n        /* \"#utility.yul\":9603:9604   */\n      dup2\n        /* \"#utility.yul\":9600:9614   */\n      lt\n        /* \"#utility.yul\":9592:9800   */\n      iszero\n      tag_188\n      jumpi\n        /* \"#utility.yul\":9685:9694   */\n      dup5\n        /* \"#utility.yul\":9680:9683   */\n      dup10\n        /* \"#utility.yul\":9676:9695   */\n      add\n        /* \"#utility.yul\":9670:9696   */\n      mload\n        /* \"#utility.yul\":9662:9668   */\n      dup3\n        /* \"#utility.yul\":9655:9697   */\n      sstore\n        /* \"#utility.yul\":9736:9737   */\n      0x01\n        /* \"#utility.yul\":9728:9734   */\n      dup3\n        /* \"#utility.yul\":9724:9738   */\n      add\n        /* \"#utility.yul\":9714:9738   */\n      swap2\n      pop\n        /* \"#utility.yul\":9783:9785   */\n      0x20\n        /* \"#utility.yul\":9772:9781   */\n      dup6\n        /* \"#utility.yul\":9768:9786   */\n      add\n        /* \"#utility.yul\":9755:9786   */\n      swap5\n      pop\n        /* \"#utility.yul\":9629:9633   */\n      0x20\n        /* \"#utility.yul\":9626:9627   */\n      dup2\n        /* \"#utility.yul\":9622:9634   */\n      add\n        /* \"#utility.yul\":9617:9634   */\n      swap1\n      pop\n        /* \"#utility.yul\":9592:9800   */\n      jump(tag_186)\n    tag_188:\n        /* \"#utility.yul\":9828:9834   */\n      dup7\n        /* \"#utility.yul\":9819:9826   */\n      dup4\n        /* \"#utility.yul\":9816:9835   */\n      lt\n        /* \"#utility.yul\":9813:9992   */\n      iszero\n      tag_189\n      jumpi\n        /* \"#utility.yul\":9886:9895   */\n      dup5\n        /* \"#utility.yul\":9881:9884   */\n      dup10\n        /* \"#utility.yul\":9877:9896   */\n      add\n        /* \"#utility.yul\":9871:9897   */\n      mload\n        /* \"#utility.yul\":9929:9977   */\n      tag_190\n        /* \"#utility.yul\":9971:9975   */\n      0x1f\n        /* \"#utility.yul\":9963:9969   */\n      dup10\n        /* \"#utility.yul\":9959:9976   */\n      and\n        /* \"#utility.yul\":9948:9957   */\n      dup3\n        /* \"#utility.yul\":9929:9977   */\n      tag_71\n      jump\t// in\n    tag_190:\n        /* \"#utility.yul\":9921:9927   */\n      dup4\n        /* \"#utility.yul\":9914:9978   */\n      sstore\n        /* \"#utility.yul\":9836:9992   */\n      pop\n        /* \"#utility.yul\":9813:9992   */\n    tag_189:\n        /* \"#utility.yul\":10038:10039   */\n      0x01\n        /* \"#utility.yul\":10034:10035   */\n      0x02\n        /* \"#utility.yul\":10026:10032   */\n      dup9\n        /* \"#utility.yul\":10022:10036   */\n      mul\n        /* \"#utility.yul\":10018:10040   */\n      add\n        /* \"#utility.yul\":10012:10016   */\n      dup9\n        /* \"#utility.yul\":10005:10041   */\n      sstore\n        /* \"#utility.yul\":9440:10051   */\n      pop\n      pop\n      pop\n        /* \"#utility.yul\":9403:10290   */\n    tag_181:\n      pop\n        /* \"#utility.yul\":8993:10296   */\n      pop\n      pop\n      pop\n        /* \"#utility.yul\":8901:10296   */\n      pop\n      pop\n      jump\t// out\n        /* \"#utility.yul\":10302:10482   */\n    tag_73:\n        /* \"#utility.yul\":10350:10427   */\n      0x4e487b7100000000000000000000000000000000000000000000000000000000\n        /* \"#utility.yul\":10347:10348   */\n      0x00\n        /* \"#utility.yul\":10340:10428   */\n      mstore\n        /* \"#utility.yul\":10447:10451   */\n      0x11\n        /* \"#utility.yul\":10444:10445   */\n      0x04\n        /* \"#utility.yul\":10437:10452   */\n      mstore\n        /* \"#utility.yul\":10471:10475   */\n      0x24\n        /* \"#utility.yul\":10468:10469   */\n      0x00\n        /* \"#utility.yul\":10461:10476   */\n      revert\n        /* \"#utility.yul\":10488:10721   */\n    tag_34:\n        /* \"#utility.yul\":10527:10530   */\n      0x00\n        /* \"#utility.yul\":10550:10574   */\n      tag_193\n        /* \"#utility.yul\":10568:10573   */\n      dup3\n        /* \"#utility.yul\":10550:10574   */\n      tag_43\n      jump\t// in\n    tag_193:\n        /* \"#utility.yul\":10541:10574   */\n      swap2\n      pop\n        /* \"#utility.yul\":10596:10662   */\n      0xffffffffffffffffffffffffffffffffffffffffffffffffffffffffffffffff\n        /* \"#utility.yul\":10589:10594   */\n      dup3\n        /* \"#utility.yul\":10586:10663   */\n      sub\n        /* \"#utility.yul\":10583:10686   */\n      tag_194\n      jumpi\n        /* \"#utility.yul\":10666:10684   */\n      tag_195\n      tag_73\n      jump\t// in\n    tag_195:\n        /* \"#utility.yul\":10583:10686   */\n    tag_194:\n        /* \"#utility.yul\":10713:10714   */\n      0x01\n        /* \"#utility.yul\":10706:10711   */\n      dup3\n        /* \"#utility.yul\":10702:10715   */\n      add\n        /* \"#utility.yul\":10695:10715   */\n      swap1\n      pop\n        /* \"#utility.yul\":10488:10721   */\n      swap2\n      swap1\n      pop\n      jump\t// out\n\n    auxdata: 0xa26469706673582212201874aca46580cd74b3758c358bbbe1a38da5f46fe2bcebb0ba696a3d3977482564736f6c63430008210033\n}\n",
				"bytecode": {
					"linkReferences": {},
					"object": "6080604052348015600e575f5ffd5b50335f5f6101000a81548173ffffffffffffffffffffffffffffffffffffffff021916908373ffffffffffffffffffffffffffffffffffffffff16021790555061081c8061005b5f395ff3fe608060405234801561000f575f5ffd5b506004361061004a575f3560e01c806367e8805f1461004e5780638da5cb5b1461006c578063aaf4389a1461008a578063feb07fc4146100a8575b5f5ffd5b6100566100c4565b6040516100639190610268565b60405180910390f35b610074610150565b60405161008191906102c7565b60405180910390f35b610092610174565b60405161009f91906102f8565b60405180910390f35b6100c260048036038101906100bd919061044e565b61017a565b005b600180546100d1906104c2565b80601f01602080910402602001604051908101604052809291908181526020018280546100fd906104c2565b80156101485780601f1061011f57610100808354040283529160200191610148565b820191905f5260205f20905b81548152906001019060200180831161012b57829003601f168201915b505050505081565b5f5f9054906101000a900473ffffffffffffffffffffffffffffffffffffffff1681565b60025481565b3373ffffffffffffffffffffffffffffffffffffffff165f5f9054906101000a900473ffffffffffffffffffffffffffffffffffffffff1673ffffffffffffffffffffffffffffffffffffffff16036101f55780600190816101dc91906106a3565b5060025f8154809291906101ef9061079f565b91905055505b50565b5f81519050919050565b5f82825260208201905092915050565b8281835e5f83830152505050565b5f601f19601f8301169050919050565b5f61023a826101f8565b6102448185610202565b9350610254818560208601610212565b61025d81610220565b840191505092915050565b5f6020820190508181035f8301526102808184610230565b905092915050565b5f73ffffffffffffffffffffffffffffffffffffffff82169050919050565b5f6102b182610288565b9050919050565b6102c1816102a7565b82525050565b5f6020820190506102da5f8301846102b8565b92915050565b5f819050919050565b6102f2816102e0565b82525050565b5f60208201905061030b5f8301846102e9565b92915050565b5f604051905090565b5f5ffd5b5f5ffd5b5f5ffd5b5f5ffd5b7f4e487b71000000000000000000000000000000000000000000000000000000005f52604160045260245ffd5b61036082610220565b810181811067ffffffffffffffff8211171561037f5761037e61032a565b5b80604052505050565b5f610391610311565b905061039d8282610357565b919050565b5f67ffffffffffffffff8211156103bc576103bb61032a565b5b6103c582610220565b9050602081019050919050565b828183375f83830152505050565b5f6103f26103ed846103a2565b610388565b90508281526020810184848401111561040e5761040d610326565b5b6104198482856103d2565b509392505050565b5f82601f83011261043557610434610322565b5b81356104458482602086016103e0565b91505092915050565b5f602082840312156104635761046261031a565b5b5f82013567ffffffffffffffff8111156104805761047f61031e565b5b61048c84828501610421565b91505092915050565b7f4e487b71000000000000000000000000000000000000000000000000000000005f52602260045260245ffd5b5f60028204905060018216806104d957607f821691505b6020821081036104ec576104eb610495565b5b50919050565b5f819050815f5260205f209050919050565b5f6020601f8301049050919050565b5f82821b905092915050565b5f6008830261054e7fffffffffffffffffffffffffffffffffffffffffffffffffffffffffffffffff82610513565b6105588683610513565b95508019841693508086168417925050509392505050565b5f819050919050565b5f61059361058e610589846102e0565b610570565b6102e0565b9050919050565b5f819050919050565b6105ac83610579565b6105c06105b88261059a565b84845461051f565b825550505050565b5f5f905090565b6105d76105c8565b6105e28184846105a3565b505050565b5f5b82811015610608576105fd5f8284016105cf565b6001810190506105e9565b505050565b601f82111561065b578282111561065a57610627816104f2565b61063083610504565b61063985610504565b6020861015610646575f90505b808301610655828403826105e7565b505050505b5b505050565b5f82821c905092915050565b5f61067b5f1984600802610660565b1980831691505092915050565b5f610693838361066c565b9150826002028217905092915050565b6106ac826101f8565b67ffffffffffffffff8111156106c5576106c461032a565b5b6106cf82546104c2565b6106da82828561060d565b5f60209050601f83116001811461070b575f84156106f9578287015190505b6107038582610688565b86555061076a565b601f198416610719866104f2565b5f5b828110156107405784890151825560018201915060208501945060208101905061071b565b8683101561075d5784890151610759601f89168261066c565b8355505b6001600288020188555050505b505050505050565b7f4e487b71000000000000000000000000000000000000000000000000000000005f52601160045260245ffd5b5f6107a9826102e0565b91507fffffffffffffffffffffffffffffffffffffffffffffffffffffffffffffffff82036107db576107da610772565b5b60018201905091905056fea26469706673582212201874aca46580cd74b3758c358bbbe1a38da5f46fe2bcebb0ba696a3d3977482564736f6c63430008210033",
					"opcodes": "PUSH1 0x80 PUSH1 0x40 MSTORE CALLVALUE DUP1 ISZERO PUSH1 0xE JUMPI PUSH0 PUSH0 REVERT JUMPDEST POP CALLER PUSH0 PUSH0 PUSH2 0x100 EXP DUP2 SLOAD DUP2 PUSH20 0xFFFFFFFFFFFFFFFFFFFFFFFFFFFFFFFFFFFFFFFF MUL NOT AND SWAP1 DUP4 PUSH20 0xFFFFFFFFFFFFFFFFFFFFFFFFFFFFFFFFFFFFFFFF AND MUL OR SWAP1 SSTORE POP PUSH2 0x81C DUP1 PUSH2 0x5B PUSH0 CODECOPY PUSH0 RETURN INVALID PUSH1 0x80 PUSH1 0x40 MSTORE CALLVALUE DUP1 ISZERO PUSH2 0xF JUMPI PUSH0 PUSH0 REVERT JUMPDEST POP PUSH1 0x4 CALLDATASIZE LT PUSH2 0x4A JUMPI PUSH0 CALLDATALOAD PUSH1 0xE0 SHR DUP1 PUSH4 0x67E8805F EQ PUSH2 0x4E JUMPI DUP1 PUSH4 0x8DA5CB5B EQ PUSH2 0x6C JUMPI DUP1 PUSH4 0xAAF4389A EQ PUSH2 0x8A JUMPI DUP1 PUSH4 0xFEB07FC4 EQ PUSH2 0xA8 JUMPI JUMPDEST PUSH0 PUSH0 REVERT JUMPDEST PUSH2 0x56 PUSH2 0xC4 JUMP JUMPDEST PUSH1 0x40 MLOAD PUSH2 0x63 SWAP2 SWAP1 PUSH2 0x268 JUMP JUMPDEST PUSH1 0x40 MLOAD DUP1 SWAP2 SUB SWAP1 RETURN JUMPDEST PUSH2 0x74 PUSH2 0x150 JUMP JUMPDEST PUSH1 0x40 MLOAD PUSH2 0x81 SWAP2 SWAP1 PUSH2 0x2C7 JUMP JUMPDEST PUSH1 0x40 MLOAD DUP1 SWAP2 SUB SWAP1 RETURN JUMPDEST PUSH2 0x92 PUSH2 0x174 JUMP JUMPDEST PUSH1 0x40 MLOAD PUSH2 0x9F SWAP2 SWAP1 PUSH2 0x2F8 JUMP JUMPDEST PUSH1 0x40 MLOAD DUP1 SWAP2 SUB SWAP1 RETURN JUMPDEST PUSH2 0xC2 PUSH1 0x4 DUP1 CALLDATASIZE SUB DUP2 ADD SWAP1 PUSH2 0xBD SWAP2 SWAP1 PUSH2 0x44E JUMP JUMPDEST PUSH2 0x17A JUMP JUMPDEST STOP JUMPDEST PUSH1 0x1 DUP1 SLOAD PUSH2 0xD1 SWAP1 PUSH2 0x4C2 JUMP JUMPDEST DUP1 PUSH1 0x1F ADD PUSH1 0x20 DUP1 SWAP2 DIV MUL PUSH1 0x20 ADD PUSH1 0x40 MLOAD SWAP1 DUP2 ADD PUSH1 0x40 MSTORE DUP1 SWAP3 SWAP2 SWAP1 DUP2 DUP2 MSTORE PUSH1 0x20 ADD DUP3 DUP1 SLOAD PUSH2 0xFD SWAP1 PUSH2 0x4C2 JUMP JUMPDEST DUP1 ISZERO PUSH2 0x148 JUMPI DUP1 PUSH1 0x1F LT PUSH2 0x11F JUMPI PUSH2 0x100 DUP1 DUP4 SLOAD DIV MUL DUP4 MSTORE SWAP2 PUSH1 0x20 ADD SWAP2 PUSH2 0x148 JUMP JUMPDEST DUP3 ADD SWAP2 SWAP1 PUSH0 MSTORE PUSH1 0x20 PUSH0 KECCAK256 SWAP1 JUMPDEST DUP2 SLOAD DUP2 MSTORE SWAP1 PUSH1 0x1 ADD SWAP1 PUSH1 0x20 ADD DUP1 DUP4 GT PUSH2 0x12B JUMPI DUP3 SWAP1 SUB PUSH1 0x1F AND DUP3 ADD SWAP2 JUMPDEST POP POP POP POP POP DUP2 JUMP JUMPDEST PUSH0 PUSH0 SWAP1 SLOAD SWAP1 PUSH2 0x100 EXP SWAP1 DIV PUSH20 0xFFFFFFFFFFFFFFFFFFFFFFFFFFFFFFFFFFFFFFFF AND DUP2 JUMP JUMPDEST PUSH1 0x2 SLOAD DUP2 JUMP JUMPDEST CALLER PUSH20 0xFFFFFFFFFFFFFFFFFFFFFFFFFFFFFFFFFFFFFFFF AND PUSH0 PUSH0 SWAP1 SLOAD SWAP1 PUSH2 0x100 EXP SWAP1 DIV PUSH20 0xFFFFFFFFFFFFFFFFFFFFFFFFFFFFFFFFFFFFFFFF AND PUSH20 0xFFFFFFFFFFFFFFFFFFFFFFFFFFFFFFFFFFFFFFFF AND SUB PUSH2 0x1F5 JUMPI DUP1 PUSH1 0x1 SWAP1 DUP2 PUSH2 0x1DC SWAP2 SWAP1 PUSH2 0x6A3 JUMP JUMPDEST POP PUSH1 0x2 PUSH0 DUP2 SLOAD DUP1 SWAP3 SWAP2 SWAP1 PUSH2 0x1EF SWAP1 PUSH2 0x79F JUMP JUMPDEST SWAP2 SWAP1 POP SSTORE POP JUMPDEST POP JUMP JUMPDEST PUSH0 DUP2 MLOAD SWAP1 POP SWAP2 SWAP1 POP JUMP JUMPDEST PUSH0 DUP3 DUP3 MSTORE PUSH1 0x20 DUP3 ADD SWAP1 POP SWAP3 SWAP2 POP POP JUMP JUMPDEST DUP3 DUP2 DUP4 MCOPY PUSH0 DUP4 DUP4 ADD MSTORE POP POP POP JUMP JUMPDEST PUSH0 PUSH1 0x1F NOT PUSH1 0x1F DUP4 ADD AND SWAP1 POP SWAP2 SWAP1 POP JUMP JUMPDEST PUSH0 PUSH2 0x23A DUP3 PUSH2 0x1F8 JUMP JUMPDEST PUSH2 0x244 DUP2 DUP6 PUSH2 0x202 JUMP JUMPDEST SWAP4 POP PUSH2 0x254 DUP2 DUP6 PUSH1 0x20 DUP7 ADD PUSH2 0x212 JUMP JUMPDEST PUSH2 0x25D DUP2 PUSH2 0x220 JUMP JUMPDEST DUP5 ADD SWAP2 POP POP SWAP3 SWAP2 POP POP JUMP JUMPDEST PUSH0 PUSH1 0x20 DUP3 ADD SWAP1 POP DUP2 DUP2 SUB PUSH0 DUP4 ADD MSTORE PUSH2 0x280 DUP2 DUP5 PUSH2 0x230 JUMP JUMPDEST SWAP1 POP SWAP3 SWAP2 POP POP JUMP JUMPDEST PUSH0 PUSH20 0xFFFFFFFFFFFFFFFFFFFFFFFFFFFFFFFFFFFFFFFF DUP3 AND SWAP1 POP SWAP2 SWAP1 POP JUMP JUMPDEST PUSH0 PUSH2 0x2B1 DUP3 PUSH2 0x288 JUMP JUMPDEST SWAP1 POP SWAP2 SWAP1 POP JUMP JUMPDEST PUSH2 0x2C1 DUP2 PUSH2 0x2A7 JUMP JUMPDEST DUP3 MSTORE POP POP JUMP JUMPDEST PUSH0 PUSH1 0x20 DUP3 ADD SWAP1 POP PUSH2 0x2DA PUSH0 DUP4 ADD DUP5 PUSH2 0x2B8 JUMP JUMPDEST SWAP3 SWAP2 POP POP JUMP JUMPDEST PUSH0 DUP2 SWAP1 POP SWAP2 SWAP1 POP JUMP JUMPDEST PUSH2 0x2F2 DUP2 PUSH2 0x2E0 JUMP JUMPDEST DUP3 MSTORE POP POP JUMP JUMPDEST PUSH0 PUSH1 0x20 DUP3 ADD SWAP1 POP PUSH2 0x30B PUSH0 DUP4 ADD DUP5 PUSH2 0x2E9 JUMP JUMPDEST SWAP3 SWAP2 POP POP JUMP JUMPDEST PUSH0 PUSH1 0x40 MLOAD SWAP1 POP SWAP1 JUMP JUMPDEST PUSH0 PUSH0 REVERT JUMPDEST PUSH0 PUSH0 REVERT JUMPDEST PUSH0 PUSH0 REVERT JUMPDEST PUSH0 PUSH0 REVERT JUMPDEST PUSH32 0x4E487B7100000000000000000000000000000000000000000000000000000000 PUSH0 MSTORE PUSH1 0x41 PUSH1 0x4 MSTORE PUSH1 0x24 PUSH0 REVERT JUMPDEST PUSH2 0x360 DUP3 PUSH2 0x220 JUMP JUMPDEST DUP2 ADD DUP2 DUP2 LT PUSH8 0xFFFFFFFFFFFFFFFF DUP3 GT OR ISZERO PUSH2 0x37F JUMPI PUSH2 0x37E PUSH2 0x32A JUMP JUMPDEST JUMPDEST DUP1 PUSH1 0x40 MSTORE POP POP POP JUMP JUMPDEST PUSH0 PUSH2 0x391 PUSH2 0x311 JUMP JUMPDEST SWAP1 POP PUSH2 0x39D DUP3 DUP3 PUSH2 0x357 JUMP JUMPDEST SWAP2 SWAP1 POP JUMP JUMPDEST PUSH0 PUSH8 0xFFFFFFFFFFFFFFFF DUP3 GT ISZERO PUSH2 0x3BC JUMPI PUSH2 0x3BB PUSH2 0x32A JUMP JUMPDEST JUMPDEST PUSH2 0x3C5 DUP3 PUSH2 0x220 JUMP JUMPDEST SWAP1 POP PUSH1 0x20 DUP2 ADD SWAP1 POP SWAP2 SWAP1 POP JUMP JUMPDEST DUP3 DUP2 DUP4 CALLDATACOPY PUSH0 DUP4 DUP4 ADD MSTORE POP POP POP JUMP JUMPDEST PUSH0 PUSH2 0x3F2 PUSH2 0x3ED DUP5 PUSH2 0x3A2 JUMP JUMPDEST PUSH2 0x388 JUMP JUMPDEST SWAP1 POP DUP3 DUP2 MSTORE PUSH1 0x20 DUP2 ADD DUP5 DUP5 DUP5 ADD GT ISZERO PUSH2 0x40E JUMPI PUSH2 0x40D PUSH2 0x326 JUMP JUMPDEST JUMPDEST PUSH2 0x419 DUP5 DUP3 DUP6 PUSH2 0x3D2 JUMP JUMPDEST POP SWAP4 SWAP3 POP POP POP JUMP JUMPDEST PUSH0 DUP3 PUSH1 0x1F DUP4 ADD SLT PUSH2 0x435 JUMPI PUSH2 0x434 PUSH2 0x322 JUMP JUMPDEST JUMPDEST DUP2 CALLDATALOAD PUSH2 0x445 DUP5 DUP3 PUSH1 0x20 DUP7 ADD PUSH2 0x3E0 JUMP JUMPDEST SWAP2 POP POP SWAP3 SWAP2 POP POP JUMP JUMPDEST PUSH0 PUSH1 0x20 DUP3 DUP5 SUB SLT ISZERO PUSH2 0x463 JUMPI PUSH2 0x462 PUSH2 0x31A JUMP JUMPDEST JUMPDEST PUSH0 DUP3 ADD CALLDATALOAD PUSH8 0xFFFFFFFFFFFFFFFF DUP2 GT ISZERO PUSH2 0x480 JUMPI PUSH2 0x47F PUSH2 0x31E JUMP JUMPDEST JUMPDEST PUSH2 0x48C DUP5 DUP3 DUP6 ADD PUSH2 0x421 JUMP JUMPDEST SWAP2 POP POP SWAP3 SWAP2 POP POP JUMP JUMPDEST PUSH32 0x4E487B7100000000000000000000000000000000000000000000000000000000 PUSH0 MSTORE PUSH1 0x22 PUSH1 0x4 MSTORE PUSH1 0x24 PUSH0 REVERT JUMPDEST PUSH0 PUSH1 0x2 DUP3 DIV SWAP1 POP PUSH1 0x1 DUP3 AND DUP1 PUSH2 0x4D9 JUMPI PUSH1 0x7F DUP3 AND SWAP2 POP JUMPDEST PUSH1 0x20 DUP3 LT DUP2 SUB PUSH2 0x4EC JUMPI PUSH2 0x4EB PUSH2 0x495 JUMP JUMPDEST JUMPDEST POP SWAP2 SWAP1 POP JUMP JUMPDEST PUSH0 DUP2 SWAP1 POP DUP2 PUSH0 MSTORE PUSH1 0x20 PUSH0 KECCAK256 SWAP1 POP SWAP2 SWAP1 POP JUMP JUMPDEST PUSH0 PUSH1 0x20 PUSH1 0x1F DUP4 ADD DIV SWAP1 POP SWAP2 SWAP1 POP JUMP JUMPDEST PUSH0 DUP3 DUP3 SHL SWAP1 POP SWAP3 SWAP2 POP POP JUMP JUMPDEST PUSH0 PUSH1 0x8 DUP4 MUL PUSH2 0x54E PUSH32 0xFFFFFFFFFFFFFFFFFFFFFFFFFFFFFFFFFFFFFFFFFFFFFFFFFFFFFFFFFFFFFFFF DUP3 PUSH2 0x513 JUMP JUMPDEST PUSH2 0x558 DUP7 DUP4 PUSH2 0x513 JUMP JUMPDEST SWAP6 POP DUP1 NOT DUP5 AND SWAP4 POP DUP1 DUP7 AND DUP5 OR SWAP3 POP POP POP SWAP4 SWAP3 POP POP POP JUMP JUMPDEST PUSH0 DUP2 SWAP1 POP SWAP2 SWAP1 POP JUMP JUMPDEST PUSH0 PUSH2 0x593 PUSH2 0x58E PUSH2 0x589 DUP5 PUSH2 0x2E0 JUMP JUMPDEST PUSH2 0x570 JUMP JUMPDEST PUSH2 0x2E0 JUMP JUMPDEST SWAP1 POP SWAP2 SWAP1 POP JUMP JUMPDEST PUSH0 DUP2 SWAP1 POP SWAP2 SWAP1 POP JUMP JUMPDEST PUSH2 0x5AC DUP4 PUSH2 0x579 JUMP JUMPDEST PUSH2 0x5C0 PUSH2 0x5B8 DUP3 PUSH2 0x59A JUMP JUMPDEST DUP5 DUP5 SLOAD PUSH2 0x51F JUMP JUMPDEST DUP3 SSTORE POP POP POP POP JUMP JUMPDEST PUSH0 PUSH0 SWAP1 POP SWAP1 JUMP JUMPDEST PUSH2 0x5D7 PUSH2 0x5C8 JUMP JUMPDEST PUSH2 0x5E2 DUP2 DUP5 DUP5 PUSH2 0x5A3 JUMP JUMPDEST POP POP POP JUMP JUMPDEST PUSH0 JUMPDEST DUP3 DUP2 LT ISZERO PUSH2 0x608 JUMPI PUSH2 0x5FD PUSH0 DUP3 DUP5 ADD PUSH2 0x5CF JUMP JUMPDEST PUSH1 0x1 DUP2 ADD SWAP1 POP PUSH2 0x5E9 JUMP JUMPDEST POP POP POP JUMP JUMPDEST PUSH1 0x1F DUP3 GT ISZERO PUSH2 0x65B JUMPI DUP3 DUP3 GT ISZERO PUSH2 0x65A JUMPI PUSH2 0x627 DUP2 PUSH2 0x4F2 JUMP JUMPDEST PUSH2 0x630 DUP4 PUSH2 0x504 JUMP JUMPDEST PUSH2 0x639 DUP6 PUSH2 0x504 JUMP JUMPDEST PUSH1 0x20 DUP7 LT ISZERO PUSH2 0x646 JUMPI PUSH0 SWAP1 POP JUMPDEST DUP1 DUP4 ADD PUSH2 0x655 DUP3 DUP5 SUB DUP3 PUSH2 0x5E7 JUMP JUMPDEST POP POP POP POP JUMPDEST JUMPDEST POP POP POP JUMP JUMPDEST PUSH0 DUP3 DUP3 SHR SWAP1 POP SWAP3 SWAP2 POP POP JUMP JUMPDEST PUSH0 PUSH2 0x67B PUSH0 NOT DUP5 PUSH1 0x8 MUL PUSH2 0x660 JUMP JUMPDEST NOT DUP1 DUP4 AND SWAP2 POP POP SWAP3 SWAP2 POP POP JUMP JUMPDEST PUSH0 PUSH2 0x693 DUP4 DUP4 PUSH2 0x66C JUMP JUMPDEST SWAP2 POP DUP3 PUSH1 0x2 MUL DUP3 OR SWAP1 POP SWAP3 SWAP2 POP POP JUMP JUMPDEST PUSH2 0x6AC DUP3 PUSH2 0x1F8 JUMP JUMPDEST PUSH8 0xFFFFFFFFFFFFFFFF DUP2 GT ISZERO PUSH2 0x6C5 JUMPI PUSH2 0x6C4 PUSH2 0x32A JUMP JUMPDEST JUMPDEST PUSH2 0x6CF DUP3 SLOAD PUSH2 0x4C2 JUMP JUMPDEST PUSH2 0x6DA DUP3 DUP3 DUP6 PUSH2 0x60D JUMP JUMPDEST PUSH0 PUSH1 0x20 SWAP1 POP PUSH1 0x1F DUP4 GT PUSH1 0x1 DUP2 EQ PUSH2 0x70B JUMPI PUSH0 DUP5 ISZERO PUSH2 0x6F9 JUMPI DUP3 DUP8 ADD MLOAD SWAP1 POP JUMPDEST PUSH2 0x703 DUP6 DUP3 PUSH2 0x688 JUMP JUMPDEST DUP7 SSTORE POP PUSH2 0x76A JUMP JUMPDEST PUSH1 0x1F NOT DUP5 AND PUSH2 0x719 DUP7 PUSH2 0x4F2 JUMP JUMPDEST PUSH0 JUMPDEST DUP3 DUP2 LT ISZERO PUSH2 0x740 JUMPI DUP5 DUP10 ADD MLOAD DUP3 SSTORE PUSH1 0x1 DUP3 ADD SWAP2 POP PUSH1 0x20 DUP6 ADD SWAP5 POP PUSH1 0x20 DUP2 ADD SWAP1 POP PUSH2 0x71B JUMP JUMPDEST DUP7 DUP4 LT ISZERO PUSH2 0x75D JUMPI DUP5 DUP10 ADD MLOAD PUSH2 0x759 PUSH1 0x1F DUP10 AND DUP3 PUSH2 0x66C JUMP JUMPDEST DUP4 SSTORE POP JUMPDEST PUSH1 0x1 PUSH1 0x2 DUP9 MUL ADD DUP9 SSTORE POP POP POP JUMPDEST POP POP POP POP POP POP JUMP JUMPDEST PUSH32 0x4E487B7100000000000000000000000000000000000000000000000000000000 PUSH0 MSTORE PUSH1 0x11 PUSH1 0x4 MSTORE PUSH1 0x24 PUSH0 REVERT JUMPDEST PUSH0 PUSH2 0x7A9 DUP3 PUSH2 0x2E0 JUMP JUMPDEST SWAP2 POP PUSH32 0xFFFFFFFFFFFFFFFFFFFFFFFFFFFFFFFFFFFFFFFFFFFFFFFFFFFFFFFFFFFFFFFF DUP3 SUB PUSH2 0x7DB JUMPI PUSH2 0x7DA PUSH2 0x772 JUMP JUMPDEST JUMPDEST PUSH1 0x1 DUP3 ADD SWAP1 POP SWAP2 SWAP1 POP JUMP INVALID LOG2 PUSH5 0x6970667358 0x22 SLT KECCAK256 XOR PUSH21 0xACA46580CD74B3758C358BBBE1A38DA5F46FE2BCEB 0xB0 0xBA PUSH10 0x6A3D3977482564736F6C PUSH4 0x43000821 STOP CALLER "
				},
				"gasEstimates": {
					"creation": {
						"codeDepositCost": "415200",
						"executionCost": "24711",
						"totalCost": "439911"
					},
					"external": {
						"changeCounter()": "2447",
						"owner()": "2507",
						"theMessage()": "infinite",
						"updatemessage(string)": "infinite"
					}
				},
				"methodIdentifiers": {
					"changeCounter()": "aaf4389a",
					"owner()": "8da5cb5b",
					"theMessage()": "67e8805f",
					"updatemessage(string)": "feb07fc4"
				}
			},
			"storageLayout": {
				"storage": [
					{
						"astId": 3,
						"contract": "contracts/theBlockchainMessenger.sol:theBlockchainMessebger",
						"label": "owner",
						"offset": 0,
						"slot": "0",
						"type": "t_address"
					},
					{
						"astId": 5,
						"contract": "contracts/theBlockchainMessenger.sol:theBlockchainMessebger",
						"label": "theMessage",
						"offset": 0,
						"slot": "1",
						"type": "t_string_storage"
					},
					{
						"astId": 7,
						"contract": "contracts/theBlockchainMessenger.sol:theBlockchainMessebger",
						"label": "changeCounter",
						"offset": 0,
						"slot": "2",
						"type": "t_uint256"
					}
				],
				"types": {
					"t_address": {
						"encoding": "inplace",
						"label": "address",
						"numberOfBytes": "20"
					},
					"t_string_storage": {
						"encoding": "bytes",
						"label": "string",
						"numberOfBytes": "32"
					},
					"t_uint256": {
						"encoding": "inplace",
						"label": "uint256",
						"numberOfBytes": "32"
					}
				}
			},
			"userdoc": {
				"kind": "user",
				"methods": {},
				"version": 1
			}
		}
	}
}